S00D00004D4152545F2E7372656384
S113000045C0000061C000005FC000005DC000008A
S11300105BC0000059C0000057C0000055C000007C
S113002053C0000051C000004FC000004DC000008C
S11300304BC0000049C0000047C0000045C000009C
S1130040E0C0000041C000003FC000003DC000000F
S11300503BC0000039C0000037C0000035C00000BC
S113006033C0000031C000002FC000002DC00000CC
S11300702BC0000029C0000027C0000025C00000DC
S113008023C0000021C000001FC0000011241FBEB7
S1130090CFEFD0E1DEBFCDBF11E0A0E0B1E0E2E5FB
S11300A0FAE100E00BBF02C007900D92A83CB10733
S11300B0D9F721E0A8ECB1E001C01D92AE3CB20733
S11300C0E1F7F0D00C94270D9BCF8FEF84BB85BB59
S11300D00895982F907F95BBAA9AAA9820E1829FB1
S11300E0C001112485BBAA9AAA988FE39FE10197C6
S11300F0F1F700C000000895982F907F916095BBA0
S1130100AA9AAA9820E1829FC0011124816085BB2C
S1130110AA9AAA988FE39FE10197F1F700C0000023
S11301200895662319F0613021F008958058D1CFE5
S113013008958054CECF08950F931F93CF93DF93E8
S1130140042F152FEEDFC02FD12F8991D5DF8881A1
S11301508111FBCFDF91CF911F910F910895B5DFEE
S11301602FEF83EC99E0215080409040E1F700C0EC
S113017000008FE599E00197F1F700C0000088E2E4
S1130180A8DF9FEF23EC89E0915020408040E1F705
S113019000C0000088E29DDF9FEF23EC89E09150CE
S11301A020408040E1F700C000008CE092DF86E050
S11301B090DF82E08EDF81E08CDF81E08ACF0895DA
S11301C020E030E041E050E0CA01022E02C0880F76
S11301D0991F0A94E2F7809582BB8FE19EE4019710
S11301E0F1F700C0000080B38095807F21F092B3C6
S11301F09F70892B08952F5F3F4F2430310521F7DD
S113020008951F920F920FB60F9211242F938F937C
S11302109F9386E082BF8091CC019091CD0101969D
S11302209093CD018093CC01883E934068F08091F7
S1130230CA019091CB0101969093CB018093CA019E
S11302401092CD011092CC018091CA019091CB0102
S1130250CC9769F48091C8019091C901019690935B
S1130260C9018093C8011092CB011092CA018091F8
S1130270C8019091C901CC9769F4809100019091D3
S11302800101019690930101809300011092C9012C
S11302901092C8019F918F912F910F900FBE0F90D4
S11302A01F901895CF93DF93CDB7DEB7E0970FB6C5
S11302B0F894DEBF0FBECDBF52DF8FE081BB8FEF5E
S11302C082BB8ABB80EE8BBB81E087BF84E083BFA7
S11302D012BE7894FE01319680E1DF011D928A9569
S11302E0E9F719A61AA61BA61CA61DA61EA61FA6DC
S11302F018AA19A21AA21BA21CA21DA21EA21FA206
S113030018A6198A1A8A1D8A1E8A1F8A188E198E9F
S11303101A8E1B8A1C8A1B8E1C8E1D8E1E8E1F8E8F
S113032018A200E010E0612C712C412C512C1F010B
S113033047DF882E912C4114510409F04FC042E04C
S113034051E060E080E0F8DE43E151E061E080E00C
S1130350F3DE9FEFA9E6B8E19150A040B040E1F789
S113036000C0000044E251E060E080E0E5DE44E2E9
S113037051E061E080E0E0DEEFEF29E688E1E15062
S113038020408040E1F700C0000042E051E060E01E
S113039080E0D2DE43E151E061E080E0CDDE9FEF1A
S11303A0A9E6B8E19150A040B040E1F700C00000D8
S11303B044E251E060E080E0BFDE44E251E061E00D
S11303C080E0BADEEFEF29E688E1E150204080408A
S11303D0E1F700C0000044244394512C61147104DB
S11303E069F58091CB018F938091CA018F9380919D
S11303F0C9018F938091C8018F93809101018F93DC
S1130400809100018F93A5E3B1E0BF93AF933F9236
S11304102F920E944C0A4CE451E060E080E08CDEB4
S1130420A10161E080E088DE0FB6F894DEBF0FBE64
S1130430CDBF9BE889169104E9F404C0ABE88A16A1
S1130440910421F40115110531F00BC7B1E06B16CD
S1130450710481F402C001E010E04DE551E060E078
S113046080E06ADE4EE651E061E080E065DE66240D
S11304706394712CEEE18E16910469F50115110552
S113048009F0F5C621E06216710409F0F0C644E2F1
S113049051E061E080E050DE19A61AA61BA61CA656
S11304A01DA61EA61FA618AA198A1A8A1D8A1E8AA4
S11304B01F8A188E198E1A8E1B8A1C8A1B8E1C8EFC
S11304C01D8E1E8E1F8E18A201E010E06894662413
S11304D061F8712CCCC68EE288169104A9F401153A
S11304E0110509F0F4C691E06916710409F0EFC62C
S11304F044E251E061E080E01FDE01E010E0689436
S1130500662462F8712C76C6A2E06A16710409F0BA
S1130510C4C3BFEDBBBB4FE751E060E080E00CDE3D
S1130520EA8DEF93298D2F93888D8F939F899F93C5
S1130530AE89AF93BD89BF93EA89EF9329892F933D
S113054080E991E09F938F933F922F92A5D7A101C9
S113055061E080E0F1DD0FB6F894DEBF0FBECDBFE1
S11305609EE189169104B1F50115110509F0A6C0A3
S113057029893A894D895E896F89788D898D9A8D0B
S113058001E04AD7298B3A8B642E752EB62FA72FFC
S1130590F82FE92F02E040D7A22EB32EC42ED52E79
S11305A0E62EF72E082F192F29893A89462D572D23
S11305B06B2F7A2F8F2F9E2F48D7A1E04FD7298BEF
S11305C03A8B4D8B5E8B6F8B788F898F9A8F01E07E
S11305D010E074C0AEE28A169104B1F5011511055C
S11305E009F0A6C029893A894D895E896F89788D79
S11305F0898D9A8D01E010D7298B3A8B642E752E44
S1130600B62FA72FF82FE92F02E006D7A22EB32E7C
S1130610C42ED52EE62EF72E082F192F29893A89B4
S1130620462D572D6B2F7A2F8F2F9E2F0ED7A2E09A
S113063015D7298B3A8B4D8B5E8B6F8B788F898F77
S11306409A8F01E010E074C0BEE48B169104B1F5FA
S11306500115110509F0A6C029893A894D895E89D9
S11306606F89788D898D9A8D01E0D6D6298B3A8B46
S1130670642E752EB62FA72FF82FE92F02E0CCD6C3
S1130680A22EB32EC42ED52EE62EF72E082F192F08
S113069029893A89462D572D6B2F7A2F8F2F9E2F1C
S11306A0D4D6A3E0DBD6298B3A8B4D8B5E8B6F8B34
S11306B0788F898F9A8F01E010E074C0EDE18E1677
S11306C09104B1F50115110509F0A6C029893A89EB
S11306D04D895E896F89788D898D9A8D01E09CD6CC
S11306E0298B3A8B642E752EB62FA72FF82FE92F5E
S11306F002E092D6A22EB32EC42ED52EE62EF72ECD
S1130700082F192F29893A89462D572D6B2F7A2FB7
S11307108F2F9E2F9AD6A4E0A1D6298B3A8B4D8B8E
S11307205E8B6F8B788F898F9A8F01E010E074C095
S11307302DE282169104B1F50115110509F0A6C048
S113074029893A894D895E896F89788D898D9A8D39
S113075001E062D6298B3A8B642E752EB62FA72F13
S1130760F82FE92F02E058D6A22EB32EC42ED52E90
S1130770E62EF72E082F192F29893A89462D572D51
S11307806B2F7A2F8F2F9E2F60D6A5E067D6298BEB
S11307903A8B4D8B5E8B6F8B788F898F9A8F01E0AC
S11307A010E074C08DE488169104B1F501151105AB
S11307B009F0A6C029893A894D895E896F89788DA7
S11307C0898D9A8D01E028D6298B3A8B642E752E5B
S11307D0B62FA72FF82FE92F02E01ED6A22EB32E94
S11307E0C42ED52EE62EF72E082F192F29893A89E3
S11307F0462D572D6B2F7A2F8F2F9E2F26D6A6E0AE
S11308002DD6298B3A8B4D8B5E8B6F8B788F898F8E
S11308109A8F01E010E074C09BE189169104B1F550
S11308200115110509F0A6C029893A894D895E8907
S11308306F89788D898D9A8D01E0EED5298B3A8B5D
S1130840642E752EB62FA72FF82FE92F02E0E4D5DA
S1130850A22EB32EC42ED52EE62EF72E082F192F36
S113086029893A89462D572D6B2F7A2F8F2F9E2F4A
S1130870ECD5A7E0F3D5298B3A8B4D8B5E8B6F8B30
S1130880788F898F9A8F01E010E074C0ABE28A16EA
S11308909104B1F50115110509F0A4C029893A891B
S11308A04D895E896F89788D898D9A8D01E0B4D5E3
S11308B0298B3A8B642E752EB62FA72FF82FE92F8C
S11308C002E0AAD5A22EB32EC42ED52EE62EF72EE4
S11308D0082F192F29893A89462D572D6B2F7A2FE6
S11308E08F2F9E2FB2D5A8E0B9D5298B3A8B4D8B8B
S11308F05E8B6F8B788F898F9A8F01E010E072C0C6
S1130900BBE48B169104B1F50115110509F012C170
S113091029893A894D895E896F89788D898D9A8D67
S113092001E07AD5298B3A8B642E752EB62FA72F2A
S1130930F82FE92F02E070D5A22EB32EC42ED52EA7
S1130940E62EF72E082F192F29893A89462D572D7F
S11309506B2F7A2F8F2F9E2F78D5A9E07FD5298BE7
S11309603A8B4D8B5E8B6F8B788F898F9A8F01E0DA
S113097010E0E0C0E7E18E169104A1F50115110520
S113098009F0ABC429893A894D895E896F89788DCC
S1130990898D9A8D01E040D5298B3A8B642E752E72
S11309A0B62FA72FF82FE92F02E036D5A22EB32EAB
S11309B0C42ED52EE62EF72E082F192F29893A8911
S11309C0462D572D6B2F7A2F8F2F9E2F3ED5298B97
S11309D03A8B4D8B5E8B6F8B788F898F9A8F01E06A
S11309E010E07BC42EE88216910409F0A3C001151F
S11309F0110509F005C529893A894D895E896F89F0
S1130A00788D898D9A8D20343D4043405105610590
S1130A1071058105910509F00CF45FC044E951E0CA
S1130A2061E080E089DBBFEFE9E628E1B150E04016
S1130A302040E1F700C0000044E251E061E080E0C2
S1130A407BDB8FEF99E6A8E181509040A040E1F76D
S1130A5000C0000044E951E061E080E06DDBBFEFDD
S1130A60E9E628E1B150E0402040E1F700C0000091
S1130A7044E251E061E080E05FDB8FEF99E6A8E1BA
S1130A8081509040A040E1F700C0000044E951E0EB
S1130A9061E080E051DBBFEFE9E628E1B150E040DE
S1130AA02040E1F700C0000044E251E061E080E052
S1130AB043DB8FEF99E6A8E181509040A040E1F735
S1130AC000C00000198A1A8A1D8A1E8A1F8A188E7D
S1130AD0198E1A8E612C712C04C06894662461F8F6
S1130AE0712C29893A894D895E896F89788D898D20
S1130AF09A8DA9A4BAA4CBA4DCA4EDA4FEA40FA54A
S1130B0018A9A3D429A73AA74BA75CA76DA77EA7CA
S1130B108FA798AB47E251E061E080E00DDB198AD2
S1130B201A8A1D8A1E8A1F8A188E198E1A8E01E04F
S1130B3010E0B3C0BDE88B16910409F0EBC30115B6
S1130B40110509F0CFC329893A894D895E896F89D6
S1130B50788D898D9A8DA9A4BAA4CBA4DCA4EDA424
S1130B60FEA40FA518A971D4A22EB32EC42ED52E7F
S1130B70E62EF72E082F192F298B3A8B4D8B5E8B7F
S1130B806F8B788F898F9A8F29A13AA14BA15CA191
S1130B906DA17EA18FA198A558D429A33AA34BA3F4
S1130BA05CA36DA37EA38FA398A701E010E09AC372
S1130BB00115110509F06DC044E251E061E080E0E7
S1130BC0BBDA70C044E951E061E080E0B5DAEFEFF0
S1130BD029E688E1E15020408040E1F700C00000B0
S1130BE044E251E061E080E0A7DA9FEFA9E6B8E1D2
S1130BF09150A040B040E1F700C0000044E951E04A
S1130C0061E080E099DAEFEF29E688E1E1502040E5
S1130C108040E1F700C0000044E251E061E080E080
S1130C208BDA9FEFA9E6B8E19150A040B040E1F71C
S1130C3000C0000044E951E061E080E07DDAEFEFBC
S1130C4029E688E1E15020408040E1F700C000003F
S1130C5044E251E061E080E06FDA9FEFA9E6B8E199
S1130C609150A040B040E1F700C0000019A61AA6B8
S1130C701BA61CA61DA61EA61FA618AA198A1A8A98
S1130C801D8A1E8A1F8A188E198E1A8E612C712C49
S1130C90DEC26894662461F8712CE3E06E16710478
S1130CA009F0A8C22FEB2BBB45EA51E060E080E0DD
S1130CB043DA88A18F939F8D9F93AE8DAF93BD8DA3
S1130CC0BF93EC8DEF932B8D2F938C898F939B89FE
S1130CD09F93A0E9B1E0BF93AF933F922F92DCD3EF
S1130CE0A10161E080E028DA0FB6F894DEBF0FBE00
S1130CF0CDBF9EE189169104B1F50115110509F0E6
S1130D00A6C02B893C894B8D5C8D6D8D7E8D8F8D1E
S1130D1098A101E081D32B8B3C8B642E752EB62FCA
S1130D20A72FF82FE92F02E077D3A22EB32EC42EDB
S1130D30D52EE62EF72E082F192F2B893C89462D08
S1130D40572D6B2F7A2F8F2F9E2F7FD3A1E086D321
S1130D502B8B3C8B4B8F5C8F6D8F7E8F8F8F98A3EB
S1130D6001E010E074C0AEE28A169104B1F50115F9
S1130D70110509F0A6C02B893C894B8D5C8D6D8DC6
S1130D807E8D8F8D98A101E047D32B8B3C8B642EF5
S1130D90752EB62FA72FF82FE92F02E03DD3A22EF0
S1130DA0B32EC42ED52EE62EF72E082F192F2B89FD
S1130DB03C89462D572D6B2F7A2F8F2F9E2F45D38D
S1130DC0A2E04CD32B8B3C8B4B8F5C8F6D8F7E8F33
S1130DD08F8F98A301E010E074C0BEE48B169104D9
S1130DE0B1F50115110509F0A6C02B893C894B8D7D
S1130DF05C8D6D8D7E8D8F8D98A101E00DD32B8B35
S1130E003C8B642E752EB62FA72FF82FE92F02E006
S1130E1003D3A22EB32EC42ED52EE62EF72E082FE2
S1130E20192F2B893C89462D572D6B2F7A2F8F2F05
S1130E309E2F0BD3A3E012D32B8B3C8B4B8F5C8F59
S1130E406D8F7E8F8F8F98A301E010E074C0EDE169
S1130E508E169104B1F50115110509F0A6C02B8970
S1130E603C894B8D5C8D6D8D7E8D8F8D98A101E0BD
S1130E70D3D22B8B3C8B642E752EB62FA72FF82F35
S1130E80E92F02E0C9D2A22EB32EC42ED52EE62E0F
S1130E90F72E082F192F2B893C89462D572D6B2FA0
S1130EA07A2F8F2F9E2FD1D2A4E0D8D22B8B3C8BBC
S1130EB04B8F5C8F6D8F7E8F8F8F98A301E010E036
S1130EC074C02DE282169104B1F50115110509F0E3
S1130ED0A6C02B893C894B8D5C8D6D8D7E8D8F8D4D
S1130EE098A101E099D22B8B3C8B642E752EB62FE2
S1130EF0A72FF82FE92F02E08FD2A22EB32EC42EF3
S1130F00D52EE62EF72E082F192F2B893C89462D36
S1130F10572D6B2F7A2F8F2F9E2F97D2A5E09ED21D
S1130F202B8B3C8B4B8F5C8F6D8F7E8F8F8F98A319
S1130F3001E010E074C08DE488169104B1F5011548
S1130F40110509F0A6C02B893C894B8D5C8D6D8DF4
S1130F507E8D8F8D98A101E05FD22B8B3C8B642E0C
S1130F60752EB62FA72FF82FE92F02E055D2A22E07
S1130F70B32EC42ED52EE62EF72E082F192F2B892B
S1130F803C89462D572D6B2F7A2F8F2F9E2F5DD2A4
S1130F90A6E064D22B8B3C8B4B8F5C8F6D8F7E8F46
S1130FA08F8F98A301E010E074C09BE1891691042F
S1130FB0B1F50115110509F0A6C02B893C894B8DAB
S1130FC05C8D6D8D7E8D8F8D98A101E025D22B8B4C
S1130FD03C8B642E752EB62FA72FF82FE92F02E035
S1130FE01BD2A22EB32EC42ED52EE62EF72E082FFA
S1130FF0192F2B893C89462D572D6B2F7A2F8F2F34
S11310009E2F23D2A7E02AD22B8B3C8B4B8F5C8F55
S11310106D8F7E8F8F8F98A301E010E074C0ABE2D8
S11310208A169104B1F50115110509F0A4C02B89A4
S11310303C894B8D5C8D6D8D7E8D8F8D98A101E0EB
S1131040EBD12B8B3C8B642E752EB62FA72FF82F4C
S1131050E92F02E0E1D1A22EB32EC42ED52EE62E26
S1131060F72E082F192F2B893C89462D572D6B2FCE
S11310707A2F8F2F9E2FE9D1A8E0F0D12B8B3C8BB8
S11310804B8F5C8F6D8F7E8F8F8F98A301E010E064
S113109072C0BBE48B169104B1F50115110509F07A
S11310A049C12B893C894B8D5C8D6D8D7E8D8F8DD7
S11310B098A101E0B1D12B8B3C8B642E752EB62FF9
S11310C0A72FF82FE92F02E0A7D1A22EB32EC42E0A
S11310D0D52EE62EF72E082F192F2B893C89462D65
S11310E0572D6B2F7A2F8F2F9E2FAFD1A9E0B6D11A
S11310F02B8B3C8B4B8F5C8F6D8F7E8F8F8F98A348
S113110001E010E017C1E7E18E169104A1F5011585
S1131110110509F009C12B893C894B8D5C8D6D8DBE
S11311207E8D8F8D98A101E077D12B8B3C8B642E23
S1131130752EB62FA72FF82FE92F02E06DD1A22E1E
S1131140B32EC42ED52EE62EF72E082F192F2B8959
S11311503C89462D572D6B2F7A2F8F2F9E2F75D1BB
S11311602B8B3C8B4B8F5C8F6D8F7E8F8F8F98A3D7
S113117001E010E0D9C02DE88216910409F0DAC02C
S11311800115110509F041C12B893C894B8D5C8DFA
S11311906D8D7E8D8F8D98A1A988BA88CD88DE88C3
S11311A0EF88F88C098D1A8D6ED199F094F062D184
S11311B02B8B3C8B4B8F5C8F6D8F7E8F8F8F98A387
S11311C044E251E061E080E00E949C0001E010E014
S11311D01CC144E251E061E080E00E949C001B8A53
S11311E01C8A1B8E1C8E1D8E1E8E1F8E18A201E063
S11311F010E00BC184E06816710449F59FE79BBBBE
S113120046EB51E060E080E00E949C00A8A5AF930B
S1131210BFA1BF93EEA1EF932DA12F938CA18F9328
S11312209BA19F93AAA1AF93B9A1BF9380E991E039
S11312309F938F933F922F922FD1A10161E080E081
S11312400E949C000FB6F894DEBF0FBECDBF892864
S113125009F06EC80130110509F06AC800E010E019
S113126067C891E06916710409F06AC0F6C8A2E083
S11312706A16710409F011CD69C0BFEDBBBB4FE71D
S113128051E060E080E00E949C00EA8DEF93298D9C
S11312902F93888D8F939F899F93AE89AF93BD8938
S11312A0BF93EA89EF9329892F9380E991E09F9373
S11312B08F933F922F92F0D0A10161E080E00E94D1
S11312C09C000FB6F894DEBF0FBECDBF87C992E075
S11312D06916710409F08EC0D0CF6894662461F851
S11312E0712CDBCC29893A894D895E896F89788D87
S11312F0898D9A8D20343D40434051056105710527
S11313008105910511F00CF05DCC6894662461F8B8
S1131310712C70CFB7E48B16910409F449CC68940E
S1131320662461F8712C66CF0F2EF3E06F2EF02D3A
S1131330712C8DCF0F2EF3E06F2EF02D712C87CFF3
S1131340EEE28E16910409F0DFC8C1CF2FED2BBB5E
S11313504FE751E060E080E00E949C008A8D8F930B
S1131360998D9F93A88DAF93BF89BF93EE89EF9317
S11313702D892F938A898F9399899F93A0E9B1E04E
S1131380BF93AF933F922F9287D0A10161E080E099
S11313900E949C000FB6F894DEBF0FBECDBFE4C818
S11313A09FEB9BBB45EA51E060E080E00E949C001B
S11313B0A8A1AF93BF8DBF93EE8DEF932D8D2F9387
S11313C08C8D8F939B8D9F93AC89AF93BB89BF9377
S11313D080E991E09F938F933F922F925DD0A1017A
S11313E061E080E00E949C000FB6F894DEBF0FBE5F
S11313F0CDBFBDCC93E06916710409F0FBCED0CF0C
S11314006894662461F8712C48CC0F2EF3E06F2E9B
S1131410F02D712C0C9498010F93083090F0982FB4
S1131420872F762F652F542F432F322F22270850D2
S1131430F4CF220F331F441F551F661F771F881FC9
S1131440991F0A95B2F70F9108952A0D3B1D4C1D63
S11314505D1D6E1D7F1D801F911F08950024A7FD33
S113146000942A0F301D401D501D601D701D801DED
S1131470901D08952A193B094C095D096E097F09DD
S1131480800B910B08952A153B054C055D056E05EF
S11314907F058007910708950F931F93CF93DF93E0
S11314A0CDB7DEB72E970FB6F894DEBF0FBECDBF13
S11314B00D891E8986E08C831A8309838FEF9FE749
S11314C09E838D83AE01475E5F4F6F89788DCE0119
S11314D0019610D0EF81F885E00FF11F10822E964F
S11314E00FB6F894DEBF0FBECDBFDF91CF911F9131
S11314F00F9108952F923F924F925F926F927F9235
S11315008F929F92AF92BF92CF92DF92EF92FF920F
S11315100F931F93CF93DF93CDB7DEB72B970FB6FF
S1131520F894DEBF0FBECDBF6C017B018A01FC01C4
S113153017821682838181FFBFC1CE0101963C01CF
S1131540F6019381F70193FD859193FF81917F01CA
S1131550882309F4ADC1853239F493FD859193FF55
S113156081917F01853221F4B60190E0D6D1E8CF94
S1131570912C212C312CFFE1F315D8F08B3279F02A
S113158038F4803279F08332A1F4232D20611DC018
S11315908D3261F0803369F4232D216016C0832DD0
S11315A08260382EE32DE4603E2E2AC0F32DF860CD
S11315B01DC037FC2DC020ED280F2A3040F08E329C
S11315C0B9F436FC75C1232D2064322E19C036FEC1
S11315D006C08AE0989E200D1124922E11C0EAE0E4
S11315E02E9E200D1124222EF32DF0623F2E08C0D2
S11315F08C3621F4832D8068382E02C0883641F45D
S1131600F70193FD859193FF81917F018111B3CF00
S1131610982F9F7D9554933028F40C5F1F4F9FE3C0
S113162099830DC0833631F0833771F0833509F027
S113163055C020C0F801808189830E5F1F4F882424
S11316408394912C530112C02801F2E04F0E511CD7
S1131650F801A080B18036FE03C0692D70E002C09D
S11316606FEF7FEFC5014ED14C018201F32DFF775F
S11316703F2E15C0280122E0420E511CF801A08023
S1131680B18036FE03C0692D70E002C06FEF7FEFBA
S1131690C5012DD14C01F32DF0683F2E820133FC9E
S11316A019C0822D90E088169906A0F4B60180E254
S11316B090E033D12A94F5CFF50137FC859137FEBC
S11316C081915F01B60190E028D121102A9421E094
S11316D0821A91088114910479F7E1C0843611F0DB
S11316E0893639F5F80137FE07C06081718182813E
S11316F093810C5F1F4F08C060817181072E000C1D
S1131700880B990B0E5F1F4FF32DFF763F2E97FF2B
S113171009C090958095709561957F4F8F4F9F4F2D
S1131720F0683F2E2AE030E0A30133D1882E8618DA
S113173044C0853731F4232D2F7EB22E2AE030E0C9
S113174025C0932D997FB92E8F36C1F018F48835B2
S113175079F0AEC0803719F0883721F0A9C0E92F9D
S1131760E061BE2EB4FE0DC0FB2DF460BF2E09C097
S113177034FE0AC0292F2660B22E06C028E030E0CD
S113178005C020E130E002C020E132E0F801B7FEFC
S113179007C060817181828193810C5F1F4F06C0F5
S11317A06081718180E090E00E5F1F4FA301F1D052
S11317B0882E8618FB2DFF773F2E36FE0DC0232D75
S11317C02E7FA22E891458F434FE0BC032FC09C0BB
S11317D0832D8E7EA82E05C0B82CA32C03C0B82C54
S11317E001C0B92CA4FE0FC0FE01E80DF11D8081DB
S11317F0803321F49A2D997EA92E09C0A2FE06C039
S1131800B394B39404C08A2D867809F0B394A3FCEE
S113181010C0A0FE06C0B21480F4280C922C9B18B1
S11318200DC0B21458F4B60180E290E076D0B394BF
S1131830F8CFB21418F42B1802C0982C212CA4FE53
S11318400FC0B60180E390E068D0A2FE16C0A1FCF0
S113185003C088E790E002C088E590E0B6010CC0C0
S11318608A2D867851F0A1FE02C08BE201C080E28D
S1131870A7FC8DE2B60190E050D0891430F4B60193
S113188080E390E04AD09A94F8CF8A94F301E80D6B
S1131890F11D8081B60190E040D08110F6CF222066
S11318A009F44ECEB60180E290E037D02A94F7CF07
S11318B0F6018681978102C08FEF9FEF2B960FB6BA
S11318C0F894DEBF0FBECDBFDF91CF911F910F9172
S11318D0FF90EF90DF90CF90BF90AF909F908F904C
S11318E07F906F905F904F903F902F900895FC01F0
S11318F00590615070400110D8F7809590958E0F37
S11319009F1F0895FC016150704001900110D8F7A9
S1131910809590958E0F9F1F08950F931F93CF93DB
S1131920DF93FB01238121FD03C08FEF9FEF2CC0C8
S113193022FF16C0468157812481358142175307FF
S113194044F4A081B1819D012F5F3F4F31832083F7
S11319508C93268137812F5F3F4F3783268314C0B2
S11319608B01EC01FB010084F185E02D0995892BA5
S1131970E1F6D80116968D919C91179701961796CA
S11319809C938E931697CE01DF91CF911F910F9167
S11319900895FA01AA27283051F1203181F1E89401
S11319A06F936E7F6E5F7F4F8F4F9F4FAF4FB1E04E
S11319B03ED0B4E03CD0670F781F891F9A1FA11D49
S11319C0680F791F8A1F911DA11D6A0F711D811D4A
S11319D0911DA11D20D009F468943F912AE0269F0F
S11319E011243019305D3193DEF6CF010895462F6E
S11319F04770405D4193B3E00FD0C9F7F6CF462F4F
S1131A004F70405D4A3318F0495D31FD40524193B7
S1131A1002D0A9F7EACFB4E0A69597958795779574
S1131A206795BA95C9F700976105710508959B01FB
S1131A30AC010A2E06945795479537952795BA9584
S1131A40C9F7620F731F841F951FA01D0895F89492
S1051A50FFCFC2
S1131A52080020202020204D41524B4554202020B4
S1131A62202000202020202053595354454D20206B
S1131A722020200020202020202020202020202080
S1131A82202020200020202020253032643A2530D6
S1131A9232643A2530326420202020002020202085
S1131AA257454C434F4D45212120202000313A20F7
S1131AB243616C63756C6174696F6E202000323A05
S1131AC220546F74616C2053616C65732020004351
S1131AD2616C63756C617465204D6F6465202000D0
S1131AE2256C640020202020204552524F52212090
S1131AF220202020004368616E676573204D6F6467
S1131B02652020202000546F74616C2053616C6541
S10B1B127320202020200000B4
S9030000FC
